{
	"data": {
		"bytecode": {
			"linkReferences": {},
			"object": "610b99610053600b82828239805160001a607314610046577f4e487b7100000000000000000000000000000000000000000000000000000000600052600060045260246000fd5b30600052607381538281f3fe730000000000000000000000000000000000000000301460806040526004361061004b5760003560e01c806381a33a6f146100505780639201de551461008057806394e8767d146100b0575b600080fd5b61006a600480360381019061006591906104b5565b6100e0565b60405161007791906104fb565b60405180910390f35b61009a600480360381019061009591906104b5565b610228565b6040516100a791906105af565b60405180910390f35b6100ca60048036038101906100c591906105fd565b6103c3565b6040516100d79190610639565b60405180910390f35b60008060001b821415610128576040517f08c379a000000000000000000000000000000000000000000000000000000000815260040161011f906106b1565b60405180910390fd5b600080600090505b60208110156102215760ff81601f6101489190610700565b60086101549190610734565b600261016091906108c1565b8560001c61016e919061093b565b169150600082141561017f57610221565b603082108061018e5750603982115b156101e557603082101580156101a5575060398211155b6101e4576040517f08c379a00000000000000000000000000000000000000000000000000000000081526004016101db906109de565b60405180910390fd5b5b600a836101f29190610734565b92506030826102019190610700565b8361020c91906109fe565b9250808061021990610a54565b915050610130565b5050919050565b606060005b60208160ff1610801561027f5750600060f81b838260ff166020811061025657610255610a9d565b5b1a60f81b7effffffffffffffffffffffffffffffffffffffffffffffffffffffffffffff191614155b1561029757808061028f90610ad9565b91505061022d565b60008160ff1667ffffffffffffffff8111156102b6576102b5610b03565b5b6040519080825280601f01601f1916602001820160405280156102e85781602001600182028036833780820191505090505b509050600091505b60208260ff161080156103425750600060f81b848360ff166020811061031957610318610a9d565b5b1a60f81b7effffffffffffffffffffffffffffffffffffffffffffffffffffffffffffff191614155b156103b957838260ff166020811061035d5761035c610a9d565b5b1a60f81b818360ff168151811061037757610376610a9d565b5b60200101907effffffffffffffffffffffffffffffffffffffffffffffffffffffffffffff1916908160001a90535081806103b190610ad9565b9250506102f0565b8092505050919050565b6000808214156103f5577f30000000000000000000000000000000000000000000000000000000000000009050610475565b5b6000821115610474576101008160001c610410919061093b565b60001b90507f01000000000000000000000000000000000000000000000000000000000000006030600a846104459190610b32565b61044f91906109fe565b6104599190610734565b60001b81179050600a8261046d919061093b565b91506103f6565b5b919050565b600080fd5b6000819050919050565b6104928161047f565b811461049d57600080fd5b50565b6000813590506104af81610489565b92915050565b6000602082840312156104cb576104ca61047a565b5b60006104d9848285016104a0565b91505092915050565b6000819050919050565b6104f5816104e2565b82525050565b600060208201905061051060008301846104ec565b92915050565b600081519050919050565b600082825260208201905092915050565b60005b83811015610550578082015181840152602081019050610535565b8381111561055f576000848401525b50505050565b6000601f19601f8301169050919050565b600061058182610516565b61058b8185610521565b935061059b818560208601610532565b6105a481610565565b840191505092915050565b600060208201905081810360008301526105c98184610576565b905092915050565b6105da816104e2565b81146105e557600080fd5b50565b6000813590506105f7816105d1565b92915050565b6000602082840312156106135761061261047a565b5b6000610621848285016105e8565b91505092915050565b6106338161047f565b82525050565b600060208201905061064e600083018461062a565b92915050565b600082825260208201905092915050565b7f537472696e674c69622e6279746573546f55496e743a20213d20307830000000600082015250565b600061069b601d83610654565b91506106a682610665565b602082019050919050565b600060208201905081810360008301526106ca8161068e565b9050919050565b7f4e487b7100000000000000000000000000000000000000000000000000000000600052601160045260246000fd5b600061070b826104e2565b9150610716836104e2565b925082821015610729576107286106d1565b5b828203905092915050565b600061073f826104e2565b915061074a836104e2565b9250817fffffffffffffffffffffffffffffffffffffffffffffffffffffffffffffffff0483118215151615610783576107826106d1565b5b828202905092915050565b60008160011c9050919050565b6000808291508390505b60018511156107e5578086048111156107c1576107c06106d1565b5b60018516156107d05780820291505b80810290506107de8561078e565b94506107a5565b94509492505050565b6000826107fe57600190506108ba565b8161080c57600090506108ba565b8160018114610822576002811461082c5761085b565b60019150506108ba565b60ff84111561083e5761083d6106d1565b5b8360020a915084821115610855576108546106d1565b5b506108ba565b5060208310610133831016604e8410600b84101617156108905782820a90508381111561088b5761088a6106d1565b5b6108ba565b61089d848484600161079b565b925090508184048111156108b4576108b36106d1565b5b81810290505b9392505050565b60006108cc826104e2565b91506108d7836104e2565b92506109047fffffffffffffffffffffffffffffffffffffffffffffffffffffffffffffffff84846107ee565b905092915050565b7f4e487b7100000000000000000000000000000000000000000000000000000000600052601260045260246000fd5b6000610946826104e2565b9150610951836104e2565b9250826109615761096061090c565b5b828204905092915050565b7f537472696e674c69622e6279746573546f55496e743a206469676974203c203460008201527f38207c7c206469676974203e2035370000000000000000000000000000000000602082015250565b60006109c8602f83610654565b91506109d38261096c565b604082019050919050565b600060208201905081810360008301526109f7816109bb565b9050919050565b6000610a09826104e2565b9150610a14836104e2565b9250827fffffffffffffffffffffffffffffffffffffffffffffffffffffffffffffffff03821115610a4957610a486106d1565b5b828201905092915050565b6000610a5f826104e2565b91507fffffffffffffffffffffffffffffffffffffffffffffffffffffffffffffffff821415610a9257610a916106d1565b5b600182019050919050565b7f4e487b7100000000000000000000000000000000000000000000000000000000600052603260045260246000fd5b600060ff82169050919050565b6000610ae482610acc565b915060ff821415610af857610af76106d1565b5b600182019050919050565b7f4e487b7100000000000000000000000000000000000000000000000000000000600052604160045260246000fd5b6000610b3d826104e2565b9150610b48836104e2565b925082610b5857610b5761090c565b5b82820690509291505056fea2646970667358221220167b53d158aa53188656cc81ac4aa27ac7f77b201dcfe46bc7707a1b54977bcd64736f6c634300080c0033",
			"opcodes": "PUSH2 0xB99 PUSH2 0x53 PUSH1 0xB DUP3 DUP3 DUP3 CODECOPY DUP1 MLOAD PUSH1 0x0 BYTE PUSH1 0x73 EQ PUSH2 0x46 JUMPI PUSH32 0x4E487B7100000000000000000000000000000000000000000000000000000000 PUSH1 0x0 MSTORE PUSH1 0x0 PUSH1 0x4 MSTORE PUSH1 0x24 PUSH1 0x0 REVERT JUMPDEST ADDRESS PUSH1 0x0 MSTORE PUSH1 0x73 DUP2 MSTORE8 DUP3 DUP2 RETURN INVALID PUSH20 0x0 ADDRESS EQ PUSH1 0x80 PUSH1 0x40 MSTORE PUSH1 0x4 CALLDATASIZE LT PUSH2 0x4B JUMPI PUSH1 0x0 CALLDATALOAD PUSH1 0xE0 SHR DUP1 PUSH4 0x81A33A6F EQ PUSH2 0x50 JUMPI DUP1 PUSH4 0x9201DE55 EQ PUSH2 0x80 JUMPI DUP1 PUSH4 0x94E8767D EQ PUSH2 0xB0 JUMPI JUMPDEST PUSH1 0x0 DUP1 REVERT JUMPDEST PUSH2 0x6A PUSH1 0x4 DUP1 CALLDATASIZE SUB DUP2 ADD SWAP1 PUSH2 0x65 SWAP2 SWAP1 PUSH2 0x4B5 JUMP JUMPDEST PUSH2 0xE0 JUMP JUMPDEST PUSH1 0x40 MLOAD PUSH2 0x77 SWAP2 SWAP1 PUSH2 0x4FB JUMP JUMPDEST PUSH1 0x40 MLOAD DUP1 SWAP2 SUB SWAP1 RETURN JUMPDEST PUSH2 0x9A PUSH1 0x4 DUP1 CALLDATASIZE SUB DUP2 ADD SWAP1 PUSH2 0x95 SWAP2 SWAP1 PUSH2 0x4B5 JUMP JUMPDEST PUSH2 0x228 JUMP JUMPDEST PUSH1 0x40 MLOAD PUSH2 0xA7 SWAP2 SWAP1 PUSH2 0x5AF JUMP JUMPDEST PUSH1 0x40 MLOAD DUP1 SWAP2 SUB SWAP1 RETURN JUMPDEST PUSH2 0xCA PUSH1 0x4 DUP1 CALLDATASIZE SUB DUP2 ADD SWAP1 PUSH2 0xC5 SWAP2 SWAP1 PUSH2 0x5FD JUMP JUMPDEST PUSH2 0x3C3 JUMP JUMPDEST PUSH1 0x40 MLOAD PUSH2 0xD7 SWAP2 SWAP1 PUSH2 0x639 JUMP JUMPDEST PUSH1 0x40 MLOAD DUP1 SWAP2 SUB SWAP1 RETURN JUMPDEST PUSH1 0x0 DUP1 PUSH1 0x0 SHL DUP3 EQ ISZERO PUSH2 0x128 JUMPI PUSH1 0x40 MLOAD PUSH32 0x8C379A000000000000000000000000000000000000000000000000000000000 DUP2 MSTORE PUSH1 0x4 ADD PUSH2 0x11F SWAP1 PUSH2 0x6B1 JUMP JUMPDEST PUSH1 0x40 MLOAD DUP1 SWAP2 SUB SWAP1 REVERT JUMPDEST PUSH1 0x0 DUP1 PUSH1 0x0 SWAP1 POP JUMPDEST PUSH1 0x20 DUP2 LT ISZERO PUSH2 0x221 JUMPI PUSH1 0xFF DUP2 PUSH1 0x1F PUSH2 0x148 SWAP2 SWAP1 PUSH2 0x700 JUMP JUMPDEST PUSH1 0x8 PUSH2 0x154 SWAP2 SWAP1 PUSH2 0x734 JUMP JUMPDEST PUSH1 0x2 PUSH2 0x160 SWAP2 SWAP1 PUSH2 0x8C1 JUMP JUMPDEST DUP6 PUSH1 0x0 SHR PUSH2 0x16E SWAP2 SWAP1 PUSH2 0x93B JUMP JUMPDEST AND SWAP2 POP PUSH1 0x0 DUP3 EQ ISZERO PUSH2 0x17F JUMPI PUSH2 0x221 JUMP JUMPDEST PUSH1 0x30 DUP3 LT DUP1 PUSH2 0x18E JUMPI POP PUSH1 0x39 DUP3 GT JUMPDEST ISZERO PUSH2 0x1E5 JUMPI PUSH1 0x30 DUP3 LT ISZERO DUP1 ISZERO PUSH2 0x1A5 JUMPI POP PUSH1 0x39 DUP3 GT ISZERO JUMPDEST PUSH2 0x1E4 JUMPI PUSH1 0x40 MLOAD PUSH32 0x8C379A000000000000000000000000000000000000000000000000000000000 DUP2 MSTORE PUSH1 0x4 ADD PUSH2 0x1DB SWAP1 PUSH2 0x9DE JUMP JUMPDEST PUSH1 0x40 MLOAD DUP1 SWAP2 SUB SWAP1 REVERT JUMPDEST JUMPDEST PUSH1 0xA DUP4 PUSH2 0x1F2 SWAP2 SWAP1 PUSH2 0x734 JUMP JUMPDEST SWAP3 POP PUSH1 0x30 DUP3 PUSH2 0x201 SWAP2 SWAP1 PUSH2 0x700 JUMP JUMPDEST DUP4 PUSH2 0x20C SWAP2 SWAP1 PUSH2 0x9FE JUMP JUMPDEST SWAP3 POP DUP1 DUP1 PUSH2 0x219 SWAP1 PUSH2 0xA54 JUMP JUMPDEST SWAP2 POP POP PUSH2 0x130 JUMP JUMPDEST POP POP SWAP2 SWAP1 POP JUMP JUMPDEST PUSH1 0x60 PUSH1 0x0 JUMPDEST PUSH1 0x20 DUP2 PUSH1 0xFF AND LT DUP1 ISZERO PUSH2 0x27F JUMPI POP PUSH1 0x0 PUSH1 0xF8 SHL DUP4 DUP3 PUSH1 0xFF AND PUSH1 0x20 DUP2 LT PUSH2 0x256 JUMPI PUSH2 0x255 PUSH2 0xA9D JUMP JUMPDEST JUMPDEST BYTE PUSH1 0xF8 SHL PUSH31 0xFFFFFFFFFFFFFFFFFFFFFFFFFFFFFFFFFFFFFFFFFFFFFFFFFFFFFFFFFFFFFF NOT AND EQ ISZERO JUMPDEST ISZERO PUSH2 0x297 JUMPI DUP1 DUP1 PUSH2 0x28F SWAP1 PUSH2 0xAD9 JUMP JUMPDEST SWAP2 POP POP PUSH2 0x22D JUMP JUMPDEST PUSH1 0x0 DUP2 PUSH1 0xFF AND PUSH8 0xFFFFFFFFFFFFFFFF DUP2 GT ISZERO PUSH2 0x2B6 JUMPI PUSH2 0x2B5 PUSH2 0xB03 JUMP JUMPDEST JUMPDEST PUSH1 0x40 MLOAD SWAP1 DUP1 DUP3 MSTORE DUP1 PUSH1 0x1F ADD PUSH1 0x1F NOT AND PUSH1 0x20 ADD DUP3 ADD PUSH1 0x40 MSTORE DUP1 ISZERO PUSH2 0x2E8 JUMPI DUP2 PUSH1 0x20 ADD PUSH1 0x1 DUP3 MUL DUP1 CALLDATASIZE DUP4 CALLDATACOPY DUP1 DUP3 ADD SWAP2 POP POP SWAP1 POP JUMPDEST POP SWAP1 POP PUSH1 0x0 SWAP2 POP JUMPDEST PUSH1 0x20 DUP3 PUSH1 0xFF AND LT DUP1 ISZERO PUSH2 0x342 JUMPI POP PUSH1 0x0 PUSH1 0xF8 SHL DUP5 DUP4 PUSH1 0xFF AND PUSH1 0x20 DUP2 LT PUSH2 0x319 JUMPI PUSH2 0x318 PUSH2 0xA9D JUMP JUMPDEST JUMPDEST BYTE PUSH1 0xF8 SHL PUSH31 0xFFFFFFFFFFFFFFFFFFFFFFFFFFFFFFFFFFFFFFFFFFFFFFFFFFFFFFFFFFFFFF NOT AND EQ ISZERO JUMPDEST ISZERO PUSH2 0x3B9 JUMPI DUP4 DUP3 PUSH1 0xFF AND PUSH1 0x20 DUP2 LT PUSH2 0x35D JUMPI PUSH2 0x35C PUSH2 0xA9D JUMP JUMPDEST JUMPDEST BYTE PUSH1 0xF8 SHL DUP2 DUP4 PUSH1 0xFF AND DUP2 MLOAD DUP2 LT PUSH2 0x377 JUMPI PUSH2 0x376 PUSH2 0xA9D JUMP JUMPDEST JUMPDEST PUSH1 0x20 ADD ADD SWAP1 PUSH31 0xFFFFFFFFFFFFFFFFFFFFFFFFFFFFFFFFFFFFFFFFFFFFFFFFFFFFFFFFFFFFFF NOT AND SWAP1 DUP2 PUSH1 0x0 BYTE SWAP1 MSTORE8 POP DUP2 DUP1 PUSH2 0x3B1 SWAP1 PUSH2 0xAD9 JUMP JUMPDEST SWAP3 POP POP PUSH2 0x2F0 JUMP JUMPDEST DUP1 SWAP3 POP POP POP SWAP2 SWAP1 POP JUMP JUMPDEST PUSH1 0x0 DUP1 DUP3 EQ ISZERO PUSH2 0x3F5 JUMPI PUSH32 0x3000000000000000000000000000000000000000000000000000000000000000 SWAP1 POP PUSH2 0x475 JUMP JUMPDEST JUMPDEST PUSH1 0x0 DUP3 GT ISZERO PUSH2 0x474 JUMPI PUSH2 0x100 DUP2 PUSH1 0x0 SHR PUSH2 0x410 SWAP2 SWAP1 PUSH2 0x93B JUMP JUMPDEST PUSH1 0x0 SHL SWAP1 POP PUSH32 0x100000000000000000000000000000000000000000000000000000000000000 PUSH1 0x30 PUSH1 0xA DUP5 PUSH2 0x445 SWAP2 SWAP1 PUSH2 0xB32 JUMP JUMPDEST PUSH2 0x44F SWAP2 SWAP1 PUSH2 0x9FE JUMP JUMPDEST PUSH2 0x459 SWAP2 SWAP1 PUSH2 0x734 JUMP JUMPDEST PUSH1 0x0 SHL DUP2 OR SWAP1 POP PUSH1 0xA DUP3 PUSH2 0x46D SWAP2 SWAP1 PUSH2 0x93B JUMP JUMPDEST SWAP2 POP PUSH2 0x3F6 JUMP JUMPDEST JUMPDEST SWAP2 SWAP1 POP JUMP JUMPDEST PUSH1 0x0 DUP1 REVERT JUMPDEST PUSH1 0x0 DUP2 SWAP1 POP SWAP2 SWAP1 POP JUMP JUMPDEST PUSH2 0x492 DUP2 PUSH2 0x47F JUMP JUMPDEST DUP2 EQ PUSH2 0x49D JUMPI PUSH1 0x0 DUP1 REVERT JUMPDEST POP JUMP JUMPDEST PUSH1 0x0 DUP2 CALLDATALOAD SWAP1 POP PUSH2 0x4AF DUP2 PUSH2 0x489 JUMP JUMPDEST SWAP3 SWAP2 POP POP JUMP JUMPDEST PUSH1 0x0 PUSH1 0x20 DUP3 DUP5 SUB SLT ISZERO PUSH2 0x4CB JUMPI PUSH2 0x4CA PUSH2 0x47A JUMP JUMPDEST JUMPDEST PUSH1 0x0 PUSH2 0x4D9 DUP5 DUP3 DUP6 ADD PUSH2 0x4A0 JUMP JUMPDEST SWAP2 POP POP SWAP3 SWAP2 POP POP JUMP JUMPDEST PUSH1 0x0 DUP2 SWAP1 POP SWAP2 SWAP1 POP JUMP JUMPDEST PUSH2 0x4F5 DUP2 PUSH2 0x4E2 JUMP JUMPDEST DUP3 MSTORE POP POP JUMP JUMPDEST PUSH1 0x0 PUSH1 0x20 DUP3 ADD SWAP1 POP PUSH2 0x510 PUSH1 0x0 DUP4 ADD DUP5 PUSH2 0x4EC JUMP JUMPDEST SWAP3 SWAP2 POP POP JUMP JUMPDEST PUSH1 0x0 DUP2 MLOAD SWAP1 POP SWAP2 SWAP1 POP JUMP JUMPDEST PUSH1 0x0 DUP3 DUP3 MSTORE PUSH1 0x20 DUP3 ADD SWAP1 POP SWAP3 SWAP2 POP POP JUMP JUMPDEST PUSH1 0x0 JUMPDEST DUP4 DUP2 LT ISZERO PUSH2 0x550 JUMPI DUP1 DUP3 ADD MLOAD DUP2 DUP5 ADD MSTORE PUSH1 0x20 DUP2 ADD SWAP1 POP PUSH2 0x535 JUMP JUMPDEST DUP4 DUP2 GT ISZERO PUSH2 0x55F JUMPI PUSH1 0x0 DUP5 DUP5 ADD MSTORE JUMPDEST POP POP POP POP JUMP JUMPDEST PUSH1 0x0 PUSH1 0x1F NOT PUSH1 0x1F DUP4 ADD AND SWAP1 POP SWAP2 SWAP1 POP JUMP JUMPDEST PUSH1 0x0 PUSH2 0x581 DUP3 PUSH2 0x516 JUMP JUMPDEST PUSH2 0x58B DUP2 DUP6 PUSH2 0x521 JUMP JUMPDEST SWAP4 POP PUSH2 0x59B DUP2 DUP6 PUSH1 0x20 DUP7 ADD PUSH2 0x532 JUMP JUMPDEST PUSH2 0x5A4 DUP2 PUSH2 0x565 JUMP JUMPDEST DUP5 ADD SWAP2 POP POP SWAP3 SWAP2 POP POP JUMP JUMPDEST PUSH1 0x0 PUSH1 0x20 DUP3 ADD SWAP1 POP DUP2 DUP2 SUB PUSH1 0x0 DUP4 ADD MSTORE PUSH2 0x5C9 DUP2 DUP5 PUSH2 0x576 JUMP JUMPDEST SWAP1 POP SWAP3 SWAP2 POP POP JUMP JUMPDEST PUSH2 0x5DA DUP2 PUSH2 0x4E2 JUMP JUMPDEST DUP2 EQ PUSH2 0x5E5 JUMPI PUSH1 0x0 DUP1 REVERT JUMPDEST POP JUMP JUMPDEST PUSH1 0x0 DUP2 CALLDATALOAD SWAP1 POP PUSH2 0x5F7 DUP2 PUSH2 0x5D1 JUMP JUMPDEST SWAP3 SWAP2 POP POP JUMP JUMPDEST PUSH1 0x0 PUSH1 0x20 DUP3 DUP5 SUB SLT ISZERO PUSH2 0x613 JUMPI PUSH2 0x612 PUSH2 0x47A JUMP JUMPDEST JUMPDEST PUSH1 0x0 PUSH2 0x621 DUP5 DUP3 DUP6 ADD PUSH2 0x5E8 JUMP JUMPDEST SWAP2 POP POP SWAP3 SWAP2 POP POP JUMP JUMPDEST PUSH2 0x633 DUP2 PUSH2 0x47F JUMP JUMPDEST DUP3 MSTORE POP POP JUMP JUMPDEST PUSH1 0x0 PUSH1 0x20 DUP3 ADD SWAP1 POP PUSH2 0x64E PUSH1 0x0 DUP4 ADD DUP5 PUSH2 0x62A JUMP JUMPDEST SWAP3 SWAP2 POP POP JUMP JUMPDEST PUSH1 0x0 DUP3 DUP3 MSTORE PUSH1 0x20 DUP3 ADD SWAP1 POP SWAP3 SWAP2 POP POP JUMP JUMPDEST PUSH32 0x537472696E674C69622E6279746573546F55496E743A20213D20307830000000 PUSH1 0x0 DUP3 ADD MSTORE POP JUMP JUMPDEST PUSH1 0x0 PUSH2 0x69B PUSH1 0x1D DUP4 PUSH2 0x654 JUMP JUMPDEST SWAP2 POP PUSH2 0x6A6 DUP3 PUSH2 0x665 JUMP JUMPDEST PUSH1 0x20 DUP3 ADD SWAP1 POP SWAP2 SWAP1 POP JUMP JUMPDEST PUSH1 0x0 PUSH1 0x20 DUP3 ADD SWAP1 POP DUP2 DUP2 SUB PUSH1 0x0 DUP4 ADD MSTORE PUSH2 0x6CA DUP2 PUSH2 0x68E JUMP JUMPDEST SWAP1 POP SWAP2 SWAP1 POP JUMP JUMPDEST PUSH32 0x4E487B7100000000000000000000000000000000000000000000000000000000 PUSH1 0x0 MSTORE PUSH1 0x11 PUSH1 0x4 MSTORE PUSH1 0x24 PUSH1 0x0 REVERT JUMPDEST PUSH1 0x0 PUSH2 0x70B DUP3 PUSH2 0x4E2 JUMP JUMPDEST SWAP2 POP PUSH2 0x716 DUP4 PUSH2 0x4E2 JUMP JUMPDEST SWAP3 POP DUP3 DUP3 LT ISZERO PUSH2 0x729 JUMPI PUSH2 0x728 PUSH2 0x6D1 JUMP JUMPDEST JUMPDEST DUP3 DUP3 SUB SWAP1 POP SWAP3 SWAP2 POP POP JUMP JUMPDEST PUSH1 0x0 PUSH2 0x73F DUP3 PUSH2 0x4E2 JUMP JUMPDEST SWAP2 POP PUSH2 0x74A DUP4 PUSH2 0x4E2 JUMP JUMPDEST SWAP3 POP DUP2 PUSH32 0xFFFFFFFFFFFFFFFFFFFFFFFFFFFFFFFFFFFFFFFFFFFFFFFFFFFFFFFFFFFFFFFF DIV DUP4 GT DUP3 ISZERO ISZERO AND ISZERO PUSH2 0x783 JUMPI PUSH2 0x782 PUSH2 0x6D1 JUMP JUMPDEST JUMPDEST DUP3 DUP3 MUL SWAP1 POP SWAP3 SWAP2 POP POP JUMP JUMPDEST PUSH1 0x0 DUP2 PUSH1 0x1 SHR SWAP1 POP SWAP2 SWAP1 POP JUMP JUMPDEST PUSH1 0x0 DUP1 DUP3 SWAP2 POP DUP4 SWAP1 POP JUMPDEST PUSH1 0x1 DUP6 GT ISZERO PUSH2 0x7E5 JUMPI DUP1 DUP7 DIV DUP2 GT ISZERO PUSH2 0x7C1 JUMPI PUSH2 0x7C0 PUSH2 0x6D1 JUMP JUMPDEST JUMPDEST PUSH1 0x1 DUP6 AND ISZERO PUSH2 0x7D0 JUMPI DUP1 DUP3 MUL SWAP2 POP JUMPDEST DUP1 DUP2 MUL SWAP1 POP PUSH2 0x7DE DUP6 PUSH2 0x78E JUMP JUMPDEST SWAP5 POP PUSH2 0x7A5 JUMP JUMPDEST SWAP5 POP SWAP5 SWAP3 POP POP POP JUMP JUMPDEST PUSH1 0x0 DUP3 PUSH2 0x7FE JUMPI PUSH1 0x1 SWAP1 POP PUSH2 0x8BA JUMP JUMPDEST DUP2 PUSH2 0x80C JUMPI PUSH1 0x0 SWAP1 POP PUSH2 0x8BA JUMP JUMPDEST DUP2 PUSH1 0x1 DUP2 EQ PUSH2 0x822 JUMPI PUSH1 0x2 DUP2 EQ PUSH2 0x82C JUMPI PUSH2 0x85B JUMP JUMPDEST PUSH1 0x1 SWAP2 POP POP PUSH2 0x8BA JUMP JUMPDEST PUSH1 0xFF DUP5 GT ISZERO PUSH2 0x83E JUMPI PUSH2 0x83D PUSH2 0x6D1 JUMP JUMPDEST JUMPDEST DUP4 PUSH1 0x2 EXP SWAP2 POP DUP5 DUP3 GT ISZERO PUSH2 0x855 JUMPI PUSH2 0x854 PUSH2 0x6D1 JUMP JUMPDEST JUMPDEST POP PUSH2 0x8BA JUMP JUMPDEST POP PUSH1 0x20 DUP4 LT PUSH2 0x133 DUP4 LT AND PUSH1 0x4E DUP5 LT PUSH1 0xB DUP5 LT AND OR ISZERO PUSH2 0x890 JUMPI DUP3 DUP3 EXP SWAP1 POP DUP4 DUP2 GT ISZERO PUSH2 0x88B JUMPI PUSH2 0x88A PUSH2 0x6D1 JUMP JUMPDEST JUMPDEST PUSH2 0x8BA JUMP JUMPDEST PUSH2 0x89D DUP5 DUP5 DUP5 PUSH1 0x1 PUSH2 0x79B JUMP JUMPDEST SWAP3 POP SWAP1 POP DUP2 DUP5 DIV DUP2 GT ISZERO PUSH2 0x8B4 JUMPI PUSH2 0x8B3 PUSH2 0x6D1 JUMP JUMPDEST JUMPDEST DUP2 DUP2 MUL SWAP1 POP JUMPDEST SWAP4 SWAP3 POP POP POP JUMP JUMPDEST PUSH1 0x0 PUSH2 0x8CC DUP3 PUSH2 0x4E2 JUMP JUMPDEST SWAP2 POP PUSH2 0x8D7 DUP4 PUSH2 0x4E2 JUMP JUMPDEST SWAP3 POP PUSH2 0x904 PUSH32 0xFFFFFFFFFFFFFFFFFFFFFFFFFFFFFFFFFFFFFFFFFFFFFFFFFFFFFFFFFFFFFFFF DUP5 DUP5 PUSH2 0x7EE JUMP JUMPDEST SWAP1 POP SWAP3 SWAP2 POP POP JUMP JUMPDEST PUSH32 0x4E487B7100000000000000000000000000000000000000000000000000000000 PUSH1 0x0 MSTORE PUSH1 0x12 PUSH1 0x4 MSTORE PUSH1 0x24 PUSH1 0x0 REVERT JUMPDEST PUSH1 0x0 PUSH2 0x946 DUP3 PUSH2 0x4E2 JUMP JUMPDEST SWAP2 POP PUSH2 0x951 DUP4 PUSH2 0x4E2 JUMP JUMPDEST SWAP3 POP DUP3 PUSH2 0x961 JUMPI PUSH2 0x960 PUSH2 0x90C JUMP JUMPDEST JUMPDEST DUP3 DUP3 DIV SWAP1 POP SWAP3 SWAP2 POP POP JUMP JUMPDEST PUSH32 0x537472696E674C69622E6279746573546F55496E743A206469676974203C2034 PUSH1 0x0 DUP3 ADD MSTORE PUSH32 0x38207C7C206469676974203E2035370000000000000000000000000000000000 PUSH1 0x20 DUP3 ADD MSTORE POP JUMP JUMPDEST PUSH1 0x0 PUSH2 0x9C8 PUSH1 0x2F DUP4 PUSH2 0x654 JUMP JUMPDEST SWAP2 POP PUSH2 0x9D3 DUP3 PUSH2 0x96C JUMP JUMPDEST PUSH1 0x40 DUP3 ADD SWAP1 POP SWAP2 SWAP1 POP JUMP JUMPDEST PUSH1 0x0 PUSH1 0x20 DUP3 ADD SWAP1 POP DUP2 DUP2 SUB PUSH1 0x0 DUP4 ADD MSTORE PUSH2 0x9F7 DUP2 PUSH2 0x9BB JUMP JUMPDEST SWAP1 POP SWAP2 SWAP1 POP JUMP JUMPDEST PUSH1 0x0 PUSH2 0xA09 DUP3 PUSH2 0x4E2 JUMP JUMPDEST SWAP2 POP PUSH2 0xA14 DUP4 PUSH2 0x4E2 JUMP JUMPDEST SWAP3 POP DUP3 PUSH32 0xFFFFFFFFFFFFFFFFFFFFFFFFFFFFFFFFFFFFFFFFFFFFFFFFFFFFFFFFFFFFFFFF SUB DUP3 GT ISZERO PUSH2 0xA49 JUMPI PUSH2 0xA48 PUSH2 0x6D1 JUMP JUMPDEST JUMPDEST DUP3 DUP3 ADD SWAP1 POP SWAP3 SWAP2 POP POP JUMP JUMPDEST PUSH1 0x0 PUSH2 0xA5F DUP3 PUSH2 0x4E2 JUMP JUMPDEST SWAP2 POP PUSH32 0xFFFFFFFFFFFFFFFFFFFFFFFFFFFFFFFFFFFFFFFFFFFFFFFFFFFFFFFFFFFFFFFF DUP3 EQ ISZERO PUSH2 0xA92 JUMPI PUSH2 0xA91 PUSH2 0x6D1 JUMP JUMPDEST JUMPDEST PUSH1 0x1 DUP3 ADD SWAP1 POP SWAP2 SWAP1 POP JUMP JUMPDEST PUSH32 0x4E487B7100000000000000000000000000000000000000000000000000000000 PUSH1 0x0 MSTORE PUSH1 0x32 PUSH1 0x4 MSTORE PUSH1 0x24 PUSH1 0x0 REVERT JUMPDEST PUSH1 0x0 PUSH1 0xFF DUP3 AND SWAP1 POP SWAP2 SWAP1 POP JUMP JUMPDEST PUSH1 0x0 PUSH2 0xAE4 DUP3 PUSH2 0xACC JUMP JUMPDEST SWAP2 POP PUSH1 0xFF DUP3 EQ ISZERO PUSH2 0xAF8 JUMPI PUSH2 0xAF7 PUSH2 0x6D1 JUMP JUMPDEST JUMPDEST PUSH1 0x1 DUP3 ADD SWAP1 POP SWAP2 SWAP1 POP JUMP JUMPDEST PUSH32 0x4E487B7100000000000000000000000000000000000000000000000000000000 PUSH1 0x0 MSTORE PUSH1 0x41 PUSH1 0x4 MSTORE PUSH1 0x24 PUSH1 0x0 REVERT JUMPDEST PUSH1 0x0 PUSH2 0xB3D DUP3 PUSH2 0x4E2 JUMP JUMPDEST SWAP2 POP PUSH2 0xB48 DUP4 PUSH2 0x4E2 JUMP JUMPDEST SWAP3 POP DUP3 PUSH2 0xB58 JUMPI PUSH2 0xB57 PUSH2 0x90C JUMP JUMPDEST JUMPDEST DUP3 DUP3 MOD SWAP1 POP SWAP3 SWAP2 POP POP JUMP INVALID LOG2 PUSH5 0x6970667358 0x22 SLT KECCAK256 AND PUSH28 0x53D158AA53188656CC81AC4AA27AC7F77B201DCFE46BC7707A1B5497 PUSH28 0xCD64736F6C634300080C003300000000000000000000000000000000 "
		},
		"gasEstimates": {
			"creation": {
				"codeDepositCost": "593800",
				"executionCost": "654",
				"totalCost": "594454"
			},
			"external": {
				"bytes32ToString(bytes32)": "infinite",
				"bytesToUInt(bytes32)": "infinite",
				"uintToBytes(uint256)": "infinite"
			}
		},
		"methodIdentifiers": {
			"bytes32ToString(bytes32)": "9201de55",
			"bytesToUInt(bytes32)": "81a33a6f",
			"uintToBytes(uint256)": "94e8767d"
		}
	},
	"abi": [
		{
			"inputs": [
				{
					"internalType": "bytes32",
					"name": "_bytes32",
					"type": "bytes32"
				}
			],
			"name": "bytes32ToString",
			"outputs": [
				{
					"internalType": "string",
					"name": "",
					"type": "string"
				}
			],
			"stateMutability": "pure",
			"type": "function"
		},
		{
			"inputs": [
				{
					"internalType": "bytes32",
					"name": "v",
					"type": "bytes32"
				}
			],
			"name": "bytesToUInt",
			"outputs": [
				{
					"internalType": "uint256",
					"name": "ret",
					"type": "uint256"
				}
			],
			"stateMutability": "pure",
			"type": "function"
		},
		{
			"inputs": [
				{
					"internalType": "uint256",
					"name": "v",
					"type": "uint256"
				}
			],
			"name": "uintToBytes",
			"outputs": [
				{
					"internalType": "bytes32",
					"name": "ret",
					"type": "bytes32"
				}
			],
			"stateMutability": "pure",
			"type": "function"
		}
	]
}